:100000000C943E000C945B000C945B000C945B0021
:100010000C945B000C945B000C945B000C945B00F4
:100020000C945B000C9405010C945B000C945B0039
:100030000C945B000C945B000C945B000C945B00D4
:100040000C94E0000C945B000C945B000C945B003F
:100050000C943F010C94B3010C945B000C945B0076
:100060000C945B000C945B000C945B000C945B00A4
:100070000C94D3010C94EF010C945B0011241FBE6F
:10008000CFEFD8E0DEBFCDBF11E0A0E0B1E0E0E10E
:10009000F9E002C005900D92A631B107D9F722E030
:1000A000A6E1B1E001C01D92A331B207E1F70E94C1
:1000B00096000C9486040C9400000F931F93CF932A
:1000C000DF9300D000D000D0CDB7DEB78C0146E082
:1000D00050E0BC01CE0101960E94400467E071E04F
:1000E000CE0101960E943704892B99F06EE071E0F1
:1000F000CE0101960E943704892B59F026960FB63F
:10010000F894DEBF0FBECDBFDF91CF911F910F914D
:100110000895C80126960FB6F894DEBF0FBECDBF76
:10012000DF91CF911F910F910C9419020F9A0E9AA3
:10013000209A0D9A179A2FEF89E698E12150804076
:100140009040E1F700C000001798169A2FEF89E65B
:1001500098E1215080409040E1F700C000001698DF
:100160000E94D6000E9429010E94BD012FEF8DE35D
:1001700099E4215080409040E1F700C00000F6CFA4
:1001800080911701882319F0815080931701809185
:100190001601882319F08150809316018091060181
:1001A000897F8093060108950C94C00089EF87BD74
:1001B00082E084BD93E095BD80936E0078940895AD
:1001C0001F920F920FB60F9211248F939F93AF93AC
:1001D000BF938091FF0190910002A0910102B09124
:1001E00002020196A11DB11D8093FF0190930002B0
:1001F000A0930102B0930202BF91AF919F918F91A2
:100200000F900FBE0F901F9018951F920F920FB670
:100210000F9211242F933F934F935F936F937F938C
:100220008F939F93AF93BF93EF93FF930E94D4005C
:10023000FF91EF91BF91AF919F918F917F916F91BE
:100240005F914F913F912F910F900FBE0F901F9094
:10025000189510927C0110927B011092C50087E6E0
:100260008093C400E0ECF0E080818D7F808388E99A
:100270008093C10086E08093C200789408951F9215
:100280000F920FB60F921124EF92FF920F931F93CC
:100290002F933F934F935F936F937F938F939F938E
:1002A000AF93BF93CF93DF93EF93FF938091C600FB
:1002B000E0917E01EF5FEF77E0937E01F0E0E1589F
:1002C000FE4F80838A30B9F0FF91EF91DF91CF919B
:1002D000BF91AF919F918F917F916F915F914F915E
:1002E0003F912F911F910F91FF90EF900F900FBEB4
:1002F0000F901F90189581E090E00E9437028C01CA
:1003000090917E0180917D01981751F1C1E0D0E07C
:10031000E0917D01EF5FEF77E0937D017E01D801F1
:10032000AC0FBD1F1197F0E0E158FE4F80818C9318
:100330002196BE01C8010E9464038C0190917E0148
:1003400080917D019813E4CFC701F801E80FF91FF0
:100350001082C8010E945D00C8010E94CC02B4CF87
:1003600080E090E0F2CF1F920F920FB60F9211240F
:100370000F900FBE0F901F901895109219011092B8
:1003800018011092CD0087E68093CC00E8ECF0E0F5
:1003900080818D7F808388E98093C90086E0809387
:1003A000CA00789408951F920F920FB60F921124ED
:1003B0008F93EF93FF938091CE00E0915A01EF5F0E
:1003C000EF71E0935A01F0E0E55AFE4F8083FF9110
:1003D000EF918F910F900FBE0F901F9018951F9265
:1003E0000F920FB60F9211248F939F93EF93FF9369
:1003F00090911901809118019817A9F0E0911801C6
:10040000EF5FEF73E0931801F0E0E65EFE4F80814E
:100410008093CE00FF91EF919F918F910F900FBE2F
:100420000F901F9018958091C9008F7D8093C9000F
:10043000F1CFFC0130813323C9F0DC01119620910A
:1004400019012F5F2F73909118012917E1F3E22F03
:10045000F0E0E65EFE4F3083209319019091C900D1
:1004600090629093C9003D913111E9CF0895CF93E7
:10047000DF938230910510F482E090E0E091110268
:10048000F091120220E030E0C0E0D0E0309711F1AE
:100490004081518148175907C0F04817590761F446
:1004A00082819381209719F09B838A832BC090933C
:1004B00012028093110226C02115310519F042174E
:1004C000530718F49A01BE01DF01EF010280F381A6
:1004D000E02DDCCF2115310509F1281B390B243023
:1004E000310590F412968D919C91139761157105C9
:1004F00021F0FB019383828304C0909312028093C6
:100500001102FD01329644C0FD01E20FF31F8193F9
:100510009193225031092D933C933AC020910F02C0
:1005200030911002232B41F42091020130910301FC
:100530003093100220930F022091000130910101AD
:100540002115310541F42DB73EB74091040150917A
:100550000501241B350BE0910F02F0911002E21708
:10056000F307A0F42E1B3F0B2817390778F0AC01D6
:100570004E5F5F4F2417350748F04E0F5F1F5093B3
:10058000100240930F028193919302C0E0E0F0E0EB
:10059000CF01DF91CF9108950F931F93CF93DF93F6
:1005A000009709F48CC0FC013297138212820091EB
:1005B0001102109112020115110581F4208131817F
:1005C000820F931F20910F023091100228173907D4
:1005D00079F5F0931002E0930F0271C0D80140E06A
:1005E00050E0AE17BF0750F412962D913C9113972F
:1005F000AD012115310509F1D901F3CF9D01DA01D2
:100600003383228360817181860F971F821793073E
:1006100069F4EC0128813981260F371F2E5F3F4F87
:10062000318320838A819B8193838283452B29F4A4
:10063000F0931202E093110242C01396FC93EE93E2
:100640001297ED01499159919E01240F351FE21730
:10065000F30771F480819181840F951F02961196A2
:100660009C938E938281938113969C938E93129781
:10067000E0E0F0E0D80112968D919C9113970097DD
:1006800019F0F8018C01F6CF8D919C9198012E5FA5
:100690003F4F820F931F20910F02309110022817B5
:1006A000390769F4309729F410921202109211025E
:1006B00002C0138212821093100200930F02DF9186
:1006C000CF911F910F910895A0E0B0E0EAE6F3E02A
:1006D0000C945304EC01009721F4CB010E943702E3
:1006E000B8C0FC01E60FF71F9C0122503109E21748
:1006F000F30708F4ACC0D9010D911C9111970617AE
:100700001707B0F00530110508F49FC0C801049721
:100710008617970708F499C002501109061B170B9A
:10072000019311936D937C93CF010E94CC028DC0F5
:100730005B01A01AB10A4C01800E911EA09111021A
:10074000B091120240E050E0E12CF12C109709F436
:100750004AC0A815B905D1F56D907C901197630139
:1007600082E0C80ED11CCA14DB0480F1A3014A192F
:100770005B096A0182E0C80ED11C1296BC901297E8
:100780001396AC91B5E0CB16D10440F0B282A383AE
:1007900051834083D9016D937C930AC00E5F1F4F34
:1007A000C301800F911FF90191838083EB2DFA2FF4
:1007B000E114F10431F0D7011396FC93EE931297F4
:1007C00044C0F0931202E09311023FC08D919C91BE
:1007D00011974817590708F4AC017D0112960D9046
:1007E000BC91A02DB3CF80910F029091100288157B
:1007F0009905E1F446175707C8F4809100019091DC
:100800000101009741F48DB79EB7409104015091CA
:100810000501841B950BE817F907C8F4F093100243
:10082000E0930F02F901718360830FC0CB010E9436
:1008300037027C01009759F0A801BE010E942E04E6
:10084000CE010E94CC02C70104C0CE0102C080E0EC
:1008500090E0CDB7DEB7EEE00C946F04FB01DC0155
:1008600002C001900D9241505040D8F70895FB010D
:10087000DC018D91019080190110D9F3990B089535
:10088000FB01DC014150504048F001900D920020E6
:10089000C9F701C01D9241505040E0F708952F92D2
:1008A0003F924F925F926F927F928F929F92AF9200
:1008B000BF92CF92DF92EF92FF920F931F93CF934D
:1008C000DF93CDB7DEB7CA1BDB0B0FB6F894DEBFE4
:1008D0000FBECDBF09942A88398848885F846E840A
:1008E0007D848C849B84AA84B984C884DF80EE8054
:1008F000FD800C811B81AA81B981CE0FD11D0FB65D
:10090000F894DEBF0FBECDBFED010895F894FFCF80
:1009100000001302200001244750474741002447AC
:0609200050524D4300009F
:00000001FF
